{
  "_format": "hh-sol-artifact-1",
  "contractName": "DigiScribe",
  "sourceName": "contracts/DigiScribe.sol",
  "abi": [
    {
      "inputs": [
        {
          "internalType": "address",
          "name": "_rewardToken",
          "type": "address"
        }
      ],
      "stateMutability": "nonpayable",
      "type": "constructor"
    },
    {
      "inputs": [
        {
          "internalType": "address",
          "name": "owner",
          "type": "address"
        }
      ],
      "name": "OwnableInvalidOwner",
      "type": "error"
    },
    {
      "inputs": [
        {
          "internalType": "address",
          "name": "account",
          "type": "address"
        }
      ],
      "name": "OwnableUnauthorizedAccount",
      "type": "error"
    },
    {
      "inputs": [],
      "name": "ReentrancyGuardReentrantCall",
      "type": "error"
    },
    {
      "anonymous": false,
      "inputs": [
        {
          "indexed": true,
          "internalType": "address",
          "name": "previousOwner",
          "type": "address"
        },
        {
          "indexed": true,
          "internalType": "address",
          "name": "newOwner",
          "type": "address"
        }
      ],
      "name": "OwnershipTransferred",
      "type": "event"
    },
    {
      "anonymous": false,
      "inputs": [
        {
          "indexed": true,
          "internalType": "address",
          "name": "user",
          "type": "address"
        },
        {
          "indexed": false,
          "internalType": "string",
          "name": "serviceName",
          "type": "string"
        },
        {
          "indexed": false,
          "internalType": "uint256",
          "name": "amount",
          "type": "uint256"
        }
      ],
      "name": "PaymentProcessed",
      "type": "event"
    },
    {
      "anonymous": false,
      "inputs": [
        {
          "indexed": true,
          "internalType": "address",
          "name": "user",
          "type": "address"
        },
        {
          "indexed": false,
          "internalType": "uint256",
          "name": "amount",
          "type": "uint256"
        }
      ],
      "name": "RewardsClaimed",
      "type": "event"
    },
    {
      "anonymous": false,
      "inputs": [
        {
          "indexed": false,
          "internalType": "string",
          "name": "serviceName",
          "type": "string"
        },
        {
          "indexed": false,
          "internalType": "address",
          "name": "serviceWallet",
          "type": "address"
        }
      ],
      "name": "ServiceRegistered",
      "type": "event"
    },
    {
      "anonymous": false,
      "inputs": [
        {
          "indexed": true,
          "internalType": "address",
          "name": "user",
          "type": "address"
        },
        {
          "indexed": false,
          "internalType": "string",
          "name": "serviceName",
          "type": "string"
        }
      ],
      "name": "SubscriptionCancelled",
      "type": "event"
    },
    {
      "anonymous": false,
      "inputs": [
        {
          "indexed": true,
          "internalType": "address",
          "name": "user",
          "type": "address"
        },
        {
          "indexed": false,
          "internalType": "string",
          "name": "serviceName",
          "type": "string"
        },
        {
          "indexed": false,
          "internalType": "uint256",
          "name": "amount",
          "type": "uint256"
        }
      ],
      "name": "SubscriptionCreated",
      "type": "event"
    },
    {
      "inputs": [],
      "name": "POINTS_TO_TOKEN_RATIO",
      "outputs": [
        {
          "internalType": "uint256",
          "name": "",
          "type": "uint256"
        }
      ],
      "stateMutability": "view",
      "type": "function"
    },
    {
      "inputs": [],
      "name": "REWARD_POINTS_PER_PAYMENT",
      "outputs": [
        {
          "internalType": "uint256",
          "name": "",
          "type": "uint256"
        }
      ],
      "stateMutability": "view",
      "type": "function"
    },
    {
      "inputs": [
        {
          "internalType": "uint256",
          "name": "_subIndex",
          "type": "uint256"
        }
      ],
      "name": "cancelSubscription",
      "outputs": [],
      "stateMutability": "nonpayable",
      "type": "function"
    },
    {
      "inputs": [],
      "name": "claimRewards",
      "outputs": [],
      "stateMutability": "nonpayable",
      "type": "function"
    },
    {
      "inputs": [
        {
          "internalType": "string",
          "name": "_serviceName",
          "type": "string"
        },
        {
          "internalType": "uint256",
          "name": "_amount",
          "type": "uint256"
        },
        {
          "internalType": "uint256",
          "name": "_frequency",
          "type": "uint256"
        },
        {
          "internalType": "address",
          "name": "_paymentToken",
          "type": "address"
        }
      ],
      "name": "createSubscription",
      "outputs": [],
      "stateMutability": "nonpayable",
      "type": "function"
    },
    {
      "inputs": [
        {
          "internalType": "address",
          "name": "_user",
          "type": "address"
        }
      ],
      "name": "getSubscriptionCount",
      "outputs": [
        {
          "internalType": "uint256",
          "name": "",
          "type": "uint256"
        }
      ],
      "stateMutability": "view",
      "type": "function"
    },
    {
      "inputs": [
        {
          "internalType": "address",
          "name": "_user",
          "type": "address"
        }
      ],
      "name": "getUserRewardPoints",
      "outputs": [
        {
          "internalType": "uint256",
          "name": "",
          "type": "uint256"
        }
      ],
      "stateMutability": "view",
      "type": "function"
    },
    {
      "inputs": [
        {
          "internalType": "address",
          "name": "_user",
          "type": "address"
        }
      ],
      "name": "getUserSubscriptions",
      "outputs": [
        {
          "components": [
            {
              "internalType": "string",
              "name": "serviceName",
              "type": "string"
            },
            {
              "internalType": "uint256",
              "name": "amount",
              "type": "uint256"
            },
            {
              "internalType": "uint256",
              "name": "frequency",
              "type": "uint256"
            },
            {
              "internalType": "uint256",
              "name": "lastPayment",
              "type": "uint256"
            },
            {
              "internalType": "uint256",
              "name": "nextPayment",
              "type": "uint256"
            },
            {
              "internalType": "bool",
              "name": "active",
              "type": "bool"
            },
            {
              "internalType": "address",
              "name": "paymentToken",
              "type": "address"
            }
          ],
          "internalType": "struct DigiScribe.Subscription[]",
          "name": "",
          "type": "tuple[]"
        }
      ],
      "stateMutability": "view",
      "type": "function"
    },
    {
      "inputs": [],
      "name": "owner",
      "outputs": [
        {
          "internalType": "address",
          "name": "",
          "type": "address"
        }
      ],
      "stateMutability": "view",
      "type": "function"
    },
    {
      "inputs": [
        {
          "internalType": "uint256",
          "name": "_subIndex",
          "type": "uint256"
        }
      ],
      "name": "processPayment",
      "outputs": [],
      "stateMutability": "nonpayable",
      "type": "function"
    },
    {
      "inputs": [
        {
          "internalType": "string",
          "name": "_serviceName",
          "type": "string"
        },
        {
          "internalType": "address",
          "name": "_serviceWallet",
          "type": "address"
        }
      ],
      "name": "registerService",
      "outputs": [],
      "stateMutability": "nonpayable",
      "type": "function"
    },
    {
      "inputs": [
        {
          "internalType": "string",
          "name": "",
          "type": "string"
        }
      ],
      "name": "registeredServices",
      "outputs": [
        {
          "internalType": "string",
          "name": "name",
          "type": "string"
        },
        {
          "internalType": "address",
          "name": "serviceWallet",
          "type": "address"
        },
        {
          "internalType": "bool",
          "name": "exists",
          "type": "bool"
        }
      ],
      "stateMutability": "view",
      "type": "function"
    },
    {
      "inputs": [],
      "name": "renounceOwnership",
      "outputs": [],
      "stateMutability": "nonpayable",
      "type": "function"
    },
    {
      "inputs": [],
      "name": "rewardToken",
      "outputs": [
        {
          "internalType": "contract IERC20",
          "name": "",
          "type": "address"
        }
      ],
      "stateMutability": "view",
      "type": "function"
    },
    {
      "inputs": [
        {
          "internalType": "address",
          "name": "newOwner",
          "type": "address"
        }
      ],
      "name": "transferOwnership",
      "outputs": [],
      "stateMutability": "nonpayable",
      "type": "function"
    },
    {
      "inputs": [
        {
          "internalType": "address",
          "name": "",
          "type": "address"
        }
      ],
      "name": "userRewardPoints",
      "outputs": [
        {
          "internalType": "uint256",
          "name": "",
          "type": "uint256"
        }
      ],
      "stateMutability": "view",
      "type": "function"
    },
    {
      "inputs": [
        {
          "internalType": "address",
          "name": "",
          "type": "address"
        },
        {
          "internalType": "uint256",
          "name": "",
          "type": "uint256"
        }
      ],
      "name": "userSubscriptions",
      "outputs": [
        {
          "internalType": "string",
          "name": "serviceName",
          "type": "string"
        },
        {
          "internalType": "uint256",
          "name": "amount",
          "type": "uint256"
        },
        {
          "internalType": "uint256",
          "name": "frequency",
          "type": "uint256"
        },
        {
          "internalType": "uint256",
          "name": "lastPayment",
          "type": "uint256"
        },
        {
          "internalType": "uint256",
          "name": "nextPayment",
          "type": "uint256"
        },
        {
          "internalType": "bool",
          "name": "active",
          "type": "bool"
        },
        {
          "internalType": "address",
          "name": "paymentToken",
          "type": "address"
        }
      ],
      "stateMutability": "view",
      "type": "function"
    }
  ],
  "bytecode": "0x608060405234801561001057600080fd5b506040516129a93803806129a98339818101604052810190610032919061022a565b33600073ffffffffffffffffffffffffffffffffffffffff168173ffffffffffffffffffffffffffffffffffffffff16036100a55760006040517f1e4fbdf700000000000000000000000000000000000000000000000000000000815260040161009c9190610266565b60405180910390fd5b6100b48161010360201b60201c565b506001808190555080600560006101000a81548173ffffffffffffffffffffffffffffffffffffffff021916908373ffffffffffffffffffffffffffffffffffffffff16021790555050610281565b60008060009054906101000a900473ffffffffffffffffffffffffffffffffffffffff169050816000806101000a81548173ffffffffffffffffffffffffffffffffffffffff021916908373ffffffffffffffffffffffffffffffffffffffff1602179055508173ffffffffffffffffffffffffffffffffffffffff168173ffffffffffffffffffffffffffffffffffffffff167f8be0079c531659141344cd1fd0a4f28419497f9722a3daafe3b4186f6b6457e060405160405180910390a35050565b600080fd5b600073ffffffffffffffffffffffffffffffffffffffff82169050919050565b60006101f7826101cc565b9050919050565b610207816101ec565b811461021257600080fd5b50565b600081519050610224816101fe565b92915050565b6000602082840312156102405761023f6101c7565b5b600061024e84828501610215565b91505092915050565b610260816101ec565b82525050565b600060208201905061027b6000830184610257565b92915050565b612719806102906000396000f3fe608060405234801561001057600080fd5b506004361061010b5760003560e01c80637ce26644116100a2578063c95d6edc11610071578063c95d6edc14610294578063e21c92a2146102ca578063f2fde38b146102e6578063f49a21fe14610302578063f7c618c1146103325761010b565b80637ce26644146101f657806389527d2e146102265780638da5cb5b14610258578063b49f6d9a146102765761010b565b80633573c000116100de5780633573c000146101aa578063372500ab146101c65780633a2f8485146101d0578063715018a6146101ec5761010b565b806308e078f714610110578063212350831461012e5780632e6ca5881461014a57806332d350f61461017a575b600080fd5b610118610350565b6040516101259190611572565b60405180910390f35b610148600480360381019061014391906115cd565b610355565b005b610164600480360381019061015f9190611658565b610506565b60405161017191906118ac565b60405180910390f35b610194600480360381019061018f9190611658565b6106cf565b6040516101a19190611572565b60405180910390f35b6101c460048036038101906101bf9190611a03565b61071b565b005b6101ce6108a1565b005b6101ea60048036038101906101e591906115cd565b610a96565b005b6101f4610deb565b005b610210600480360381019061020b9190611658565b610dff565b60405161021d9190611572565b60405180910390f35b610240600480360381019061023b9190611a5f565b610e17565b60405161024f93929190611b10565b60405180910390f35b610260610f0c565b60405161026d9190611b4e565b60405180910390f35b61027e610f35565b60405161028b9190611572565b60405180910390f35b6102ae60048036038101906102a99190611b69565b610f3b565b6040516102c19796959493929190611ba9565b60405180910390f35b6102e460048036038101906102df9190611c1f565b61104f565b005b61030060048036038101906102fb9190611658565b6112c2565b005b61031c60048036038101906103179190611658565b611348565b6040516103299190611572565b60405180910390f35b61033a611391565b6040516103479190611d01565b60405180910390f35b606481565b600260003373ffffffffffffffffffffffffffffffffffffffff1673ffffffffffffffffffffffffffffffffffffffff1681526020019081526020016000208054905081106103d9576040517f08c379a00000000000000000000000000000000000000000000000000000000081526004016103d090611d68565b60405180910390fd5b6000600260003373ffffffffffffffffffffffffffffffffffffffff1673ffffffffffffffffffffffffffffffffffffffff168152602001908152602001600020828154811061042c5761042b611d88565b5b906000526020600020906006020160050160006101000a81548160ff0219169083151502179055503373ffffffffffffffffffffffffffffffffffffffff167f5ef518f1db21d5d0f1c60e9ad2fa5d96d14808bd148900ac06c4efee1fdb1e2b600260003373ffffffffffffffffffffffffffffffffffffffff1673ffffffffffffffffffffffffffffffffffffffff16815260200190815260200160002083815481106104dd576104dc611d88565b5b90600052602060002090600602016000016040516104fb9190611eb0565b60405180910390a250565b6060600260008373ffffffffffffffffffffffffffffffffffffffff1673ffffffffffffffffffffffffffffffffffffffff168152602001908152602001600020805480602002602001604051908101604052809291908181526020016000905b828210156106c457838290600052602060002090600602016040518060e001604052908160008201805461059a90611de6565b80601f01602080910402602001604051908101604052809291908181526020018280546105c690611de6565b80156106135780601f106105e857610100808354040283529160200191610613565b820191906000526020600020905b8154815290600101906020018083116105f657829003601f168201915b50505050508152602001600182015481526020016002820154815260200160038201548152602001600482015481526020016005820160009054906101000a900460ff161515151581526020016005820160019054906101000a900473ffffffffffffffffffffffffffffffffffffffff1673ffffffffffffffffffffffffffffffffffffffff1673ffffffffffffffffffffffffffffffffffffffff168152505081526020019060010190610567565b505050509050919050565b6000600260008373ffffffffffffffffffffffffffffffffffffffff1673ffffffffffffffffffffffffffffffffffffffff168152602001908152602001600020805490509050919050565b6107236113b7565b6003826040516107339190611f0e565b908152602001604051809103902060010160149054906101000a900460ff1615610792576040517f08c379a000000000000000000000000000000000000000000000000000000000815260040161078990611f71565b60405180910390fd5b60405180606001604052808381526020018273ffffffffffffffffffffffffffffffffffffffff168152602001600115158152506003836040516107d69190611f0e565b908152602001604051809103902060008201518160000190816107f9919061211e565b5060208201518160010160006101000a81548173ffffffffffffffffffffffffffffffffffffffff021916908373ffffffffffffffffffffffffffffffffffffffff16021790555060408201518160010160146101000a81548160ff0219169083151502179055509050507f354c1ce2422fb6ea6ef57d50abd30f533b816cf13c1a75fa48c3357ff0249de282826040516108959291906121f0565b60405180910390a15050565b6108a961143e565b6000600460003373ffffffffffffffffffffffffffffffffffffffff1673ffffffffffffffffffffffffffffffffffffffff1681526020019081526020016000205490506103e8811015610932576040517f08c379a00000000000000000000000000000000000000000000000000000000081526004016109299061226c565b60405180910390fd5b60006103e88261094291906122ea565b905060006103e883610954919061231b565b905080600460003373ffffffffffffffffffffffffffffffffffffffff1673ffffffffffffffffffffffffffffffffffffffff16815260200190815260200160002081905550600560009054906101000a900473ffffffffffffffffffffffffffffffffffffffff1673ffffffffffffffffffffffffffffffffffffffff1663a9059cbb33846040518363ffffffff1660e01b81526004016109f792919061234c565b6020604051808303816000875af1158015610a16573d6000803e3d6000fd5b505050506040513d601f19601f82011682018060405250810190610a3a91906123a1565b503373ffffffffffffffffffffffffffffffffffffffff167ffc30cddea38e2bf4d6ea7d3f9ed3b6ad7f176419f4963bd81318067a4aee73fe83604051610a819190611572565b60405180910390a2505050610a94611484565b565b610a9e61143e565b600260003373ffffffffffffffffffffffffffffffffffffffff1673ffffffffffffffffffffffffffffffffffffffff168152602001908152602001600020805490508110610b22576040517f08c379a0000000000000000000000000000000000000000000000000000000008152600401610b1990611d68565b60405180910390fd5b6000600260003373ffffffffffffffffffffffffffffffffffffffff1673ffffffffffffffffffffffffffffffffffffffff1681526020019081526020016000208281548110610b7557610b74611d88565b5b906000526020600020906006020190508060050160009054906101000a900460ff16610bd6576040517f08c379a0000000000000000000000000000000000000000000000000000000008152600401610bcd9061241a565b60405180910390fd5b8060040154421015610c1d576040517f08c379a0000000000000000000000000000000000000000000000000000000008152600401610c1490612486565b60405180910390fd5b6000600382600001604051610c329190612529565b908152602001604051809103902090508160050160019054906101000a900473ffffffffffffffffffffffffffffffffffffffff1673ffffffffffffffffffffffffffffffffffffffff166323b872dd338360010160009054906101000a900473ffffffffffffffffffffffffffffffffffffffff1685600101546040518463ffffffff1660e01b8152600401610ccb93929190612540565b6020604051808303816000875af1158015610cea573d6000803e3d6000fd5b505050506040513d601f19601f82011682018060405250810190610d0e91906123a1565b50428260030181905550816002015442610d289190612577565b82600401819055506064600460003373ffffffffffffffffffffffffffffffffffffffff1673ffffffffffffffffffffffffffffffffffffffff1681526020019081526020016000206000828254610d809190612577565b925050819055503373ffffffffffffffffffffffffffffffffffffffff167ff09276bc05d650567d338acbe6495a3ddfdfce09933f479e23c1ac7fa9650476836000018460010154604051610dd69291906125ab565b60405180910390a25050610de8611484565b50565b610df36113b7565b610dfd600061148d565b565b60046020528060005260406000206000915090505481565b600381805160208101820180518482526020830160208501208183528095505050505050600091509050806000018054610e5090611de6565b80601f0160208091040260200160405190810160405280929190818152602001828054610e7c90611de6565b8015610ec95780601f10610e9e57610100808354040283529160200191610ec9565b820191906000526020600020905b815481529060010190602001808311610eac57829003601f168201915b5050505050908060010160009054906101000a900473ffffffffffffffffffffffffffffffffffffffff16908060010160149054906101000a900460ff16905083565b60008060009054906101000a900473ffffffffffffffffffffffffffffffffffffffff16905090565b6103e881565b60026020528160005260406000208181548110610f5757600080fd5b906000526020600020906006020160009150915050806000018054610f7b90611de6565b80601f0160208091040260200160405190810160405280929190818152602001828054610fa790611de6565b8015610ff45780601f10610fc957610100808354040283529160200191610ff4565b820191906000526020600020905b815481529060010190602001808311610fd757829003601f168201915b5050505050908060010154908060020154908060030154908060040154908060050160009054906101000a900460ff16908060050160019054906101000a900473ffffffffffffffffffffffffffffffffffffffff16905087565b60038460405161105f9190611f0e565b908152602001604051809103902060010160149054906101000a900460ff166110bd576040517f08c379a00000000000000000000000000000000000000000000000000000000081526004016110b490612627565b60405180910390fd5b60008211611100576040517f08c379a00000000000000000000000000000000000000000000000000000000081526004016110f790612693565b60405180910390fd5b60006040518060e0016040528086815260200185815260200184815260200142815260200184426111319190612577565b81526020016001151581526020018373ffffffffffffffffffffffffffffffffffffffff168152509050600260003373ffffffffffffffffffffffffffffffffffffffff1673ffffffffffffffffffffffffffffffffffffffff16815260200190815260200160002081908060018154018082558091505060019003906000526020600020906006020160009091909190915060008201518160000190816111d9919061211e565b506020820151816001015560408201518160020155606082015181600301556080820151816004015560a08201518160050160006101000a81548160ff02191690831515021790555060c08201518160050160016101000a81548173ffffffffffffffffffffffffffffffffffffffff021916908373ffffffffffffffffffffffffffffffffffffffff16021790555050503373ffffffffffffffffffffffffffffffffffffffff167f6640d4de112a8c7cb54be2fef3a3031915715e59b79cd542b0a085d62471ed5a86866040516112b39291906126b3565b60405180910390a25050505050565b6112ca6113b7565b600073ffffffffffffffffffffffffffffffffffffffff168173ffffffffffffffffffffffffffffffffffffffff160361133c5760006040517f1e4fbdf70000000000000000000000000000000000000000000000000000000081526004016113339190611b4e565b60405180910390fd5b6113458161148d565b50565b6000600460008373ffffffffffffffffffffffffffffffffffffffff1673ffffffffffffffffffffffffffffffffffffffff168152602001908152602001600020549050919050565b600560009054906101000a900473ffffffffffffffffffffffffffffffffffffffff1681565b6113bf611551565b73ffffffffffffffffffffffffffffffffffffffff166113dd610f0c565b73ffffffffffffffffffffffffffffffffffffffff161461143c57611400611551565b6040517f118cdaa70000000000000000000000000000000000000000000000000000000081526004016114339190611b4e565b60405180910390fd5b565b60026001540361147a576040517f3ee5aeb500000000000000000000000000000000000000000000000000000000815260040160405180910390fd5b6002600181905550565b60018081905550565b60008060009054906101000a900473ffffffffffffffffffffffffffffffffffffffff169050816000806101000a81548173ffffffffffffffffffffffffffffffffffffffff021916908373ffffffffffffffffffffffffffffffffffffffff1602179055508173ffffffffffffffffffffffffffffffffffffffff168173ffffffffffffffffffffffffffffffffffffffff167f8be0079c531659141344cd1fd0a4f28419497f9722a3daafe3b4186f6b6457e060405160405180910390a35050565b600033905090565b6000819050919050565b61156c81611559565b82525050565b60006020820190506115876000830184611563565b92915050565b6000604051905090565b600080fd5b600080fd5b6115aa81611559565b81146115b557600080fd5b50565b6000813590506115c7816115a1565b92915050565b6000602082840312156115e3576115e2611597565b5b60006115f1848285016115b8565b91505092915050565b600073ffffffffffffffffffffffffffffffffffffffff82169050919050565b6000611625826115fa565b9050919050565b6116358161161a565b811461164057600080fd5b50565b6000813590506116528161162c565b92915050565b60006020828403121561166e5761166d611597565b5b600061167c84828501611643565b91505092915050565b600081519050919050565b600082825260208201905092915050565b6000819050602082019050919050565b600081519050919050565b600082825260208201905092915050565b60005b838110156116eb5780820151818401526020810190506116d0565b60008484015250505050565b6000601f19601f8301169050919050565b6000611713826116b1565b61171d81856116bc565b935061172d8185602086016116cd565b611736816116f7565b840191505092915050565b61174a81611559565b82525050565b60008115159050919050565b61176581611750565b82525050565b6117748161161a565b82525050565b600060e08301600083015184820360008601526117978282611708565b91505060208301516117ac6020860182611741565b5060408301516117bf6040860182611741565b5060608301516117d26060860182611741565b5060808301516117e56080860182611741565b5060a08301516117f860a086018261175c565b5060c083015161180b60c086018261176b565b508091505092915050565b6000611822838361177a565b905092915050565b6000602082019050919050565b600061184282611685565b61184c8185611690565b93508360208202850161185e856116a1565b8060005b8581101561189a578484038952815161187b8582611816565b94506118868361182a565b925060208a01995050600181019050611862565b50829750879550505050505092915050565b600060208201905081810360008301526118c68184611837565b905092915050565b600080fd5b600080fd5b7f4e487b7100000000000000000000000000000000000000000000000000000000600052604160045260246000fd5b611910826116f7565b810181811067ffffffffffffffff8211171561192f5761192e6118d8565b5b80604052505050565b600061194261158d565b905061194e8282611907565b919050565b600067ffffffffffffffff82111561196e5761196d6118d8565b5b611977826116f7565b9050602081019050919050565b82818337600083830152505050565b60006119a66119a184611953565b611938565b9050828152602081018484840111156119c2576119c16118d3565b5b6119cd848285611984565b509392505050565b600082601f8301126119ea576119e96118ce565b5b81356119fa848260208601611993565b91505092915050565b60008060408385031215611a1a57611a19611597565b5b600083013567ffffffffffffffff811115611a3857611a3761159c565b5b611a44858286016119d5565b9250506020611a5585828601611643565b9150509250929050565b600060208284031215611a7557611a74611597565b5b600082013567ffffffffffffffff811115611a9357611a9261159c565b5b611a9f848285016119d5565b91505092915050565b600082825260208201905092915050565b6000611ac4826116b1565b611ace8185611aa8565b9350611ade8185602086016116cd565b611ae7816116f7565b840191505092915050565b611afb8161161a565b82525050565b611b0a81611750565b82525050565b60006060820190508181036000830152611b2a8186611ab9565b9050611b396020830185611af2565b611b466040830184611b01565b949350505050565b6000602082019050611b636000830184611af2565b92915050565b60008060408385031215611b8057611b7f611597565b5b6000611b8e85828601611643565b9250506020611b9f858286016115b8565b9150509250929050565b600060e0820190508181036000830152611bc3818a611ab9565b9050611bd26020830189611563565b611bdf6040830188611563565b611bec6060830187611563565b611bf96080830186611563565b611c0660a0830185611b01565b611c1360c0830184611af2565b98975050505050505050565b60008060008060808587031215611c3957611c38611597565b5b600085013567ffffffffffffffff811115611c5757611c5661159c565b5b611c63878288016119d5565b9450506020611c74878288016115b8565b9350506040611c85878288016115b8565b9250506060611c9687828801611643565b91505092959194509250565b6000819050919050565b6000611cc7611cc2611cbd846115fa565b611ca2565b6115fa565b9050919050565b6000611cd982611cac565b9050919050565b6000611ceb82611cce565b9050919050565b611cfb81611ce0565b82525050565b6000602082019050611d166000830184611cf2565b92915050565b7f496e76616c696420737562736372697074696f6e20696e646578000000000000600082015250565b6000611d52601a83611aa8565b9150611d5d82611d1c565b602082019050919050565b60006020820190508181036000830152611d8181611d45565b9050919050565b7f4e487b7100000000000000000000000000000000000000000000000000000000600052603260045260246000fd5b7f4e487b7100000000000000000000000000000000000000000000000000000000600052602260045260246000fd5b60006002820490506001821680611dfe57607f821691505b602082108103611e1157611e10611db7565b5b50919050565b60008190508160005260206000209050919050565b60008154611e3981611de6565b611e438186611aa8565b94506001821660008114611e5e5760018114611e7457611ea7565b60ff198316865281151560200286019350611ea7565b611e7d85611e17565b60005b83811015611e9f57815481890152600182019150602081019050611e80565b808801955050505b50505092915050565b60006020820190508181036000830152611eca8184611e2c565b905092915050565b600081905092915050565b6000611ee8826116b1565b611ef28185611ed2565b9350611f028185602086016116cd565b80840191505092915050565b6000611f1a8284611edd565b915081905092915050565b7f5365727669636520616c72656164792065786973747300000000000000000000600082015250565b6000611f5b601683611aa8565b9150611f6682611f25565b602082019050919050565b60006020820190508181036000830152611f8a81611f4e565b9050919050565b60006020601f8301049050919050565b600082821b905092915050565b600060088302611fde7fffffffffffffffffffffffffffffffffffffffffffffffffffffffffffffffff82611fa1565b611fe88683611fa1565b95508019841693508086168417925050509392505050565b600061201b61201661201184611559565b611ca2565b611559565b9050919050565b6000819050919050565b61203583612000565b61204961204182612022565b848454611fae565b825550505050565b600090565b61205e612051565b61206981848461202c565b505050565b5b8181101561208d57612082600082612056565b60018101905061206f565b5050565b601f8211156120d2576120a381611e17565b6120ac84611f91565b810160208510156120bb578190505b6120cf6120c785611f91565b83018261206e565b50505b505050565b600082821c905092915050565b60006120f5600019846008026120d7565b1980831691505092915050565b600061210e83836120e4565b9150826002028217905092915050565b612127826116b1565b67ffffffffffffffff8111156121405761213f6118d8565b5b61214a8254611de6565b612155828285612091565b600060209050601f8311600181146121885760008415612176578287015190505b6121808582612102565b8655506121e8565b601f19841661219686611e17565b60005b828110156121be57848901518255600182019150602085019450602081019050612199565b868310156121db57848901516121d7601f8916826120e4565b8355505b6001600288020188555050505b505050505050565b6000604082019050818103600083015261220a8185611ab9565b90506122196020830184611af2565b9392505050565b7f496e73756666696369656e7420706f696e747300000000000000000000000000600082015250565b6000612256601383611aa8565b915061226182612220565b602082019050919050565b6000602082019050818103600083015261228581612249565b9050919050565b7f4e487b7100000000000000000000000000000000000000000000000000000000600052601260045260246000fd5b7f4e487b7100000000000000000000000000000000000000000000000000000000600052601160045260246000fd5b60006122f582611559565b915061230083611559565b9250826123105761230f61228c565b5b828204905092915050565b600061232682611559565b915061233183611559565b9250826123415761234061228c565b5b828206905092915050565b60006040820190506123616000830185611af2565b61236e6020830184611563565b9392505050565b61237e81611750565b811461238957600080fd5b50565b60008151905061239b81612375565b92915050565b6000602082840312156123b7576123b6611597565b5b60006123c58482850161238c565b91505092915050565b7f537562736372697074696f6e206e6f7420616374697665000000000000000000600082015250565b6000612404601783611aa8565b915061240f826123ce565b602082019050919050565b60006020820190508181036000830152612433816123f7565b9050919050565b7f5061796d656e74206e6f74206475652079657400000000000000000000000000600082015250565b6000612470601383611aa8565b915061247b8261243a565b602082019050919050565b6000602082019050818103600083015261249f81612463565b9050919050565b600081546124b381611de6565b6124bd8186611ed2565b945060018216600081146124d857600181146124ed57612520565b60ff1983168652811515820286019350612520565b6124f685611e17565b60005b83811015612518578154818901526001820191506020810190506124f9565b838801955050505b50505092915050565b600061253582846124a6565b915081905092915050565b60006060820190506125556000830186611af2565b6125626020830185611af2565b61256f6040830184611563565b949350505050565b600061258282611559565b915061258d83611559565b92508282019050808211156125a5576125a46122bb565b5b92915050565b600060408201905081810360008301526125c58185611e2c565b90506125d46020830184611563565b9392505050565b7f53657276696365206e6f74207265676973746572656400000000000000000000600082015250565b6000612611601683611aa8565b915061261c826125db565b602082019050919050565b6000602082019050818103600083015261264081612604565b9050919050565b7f496e76616c6964206672657175656e6379000000000000000000000000000000600082015250565b600061267d601183611aa8565b915061268882612647565b602082019050919050565b600060208201905081810360008301526126ac81612670565b9050919050565b600060408201905081810360008301526126cd8185611ab9565b90506126dc6020830184611563565b939250505056fea26469706673582212201ebf9c2a7f58cf958f8f1abbfc625784dcc57bf5295bf63604a0ca517da54ec364736f6c634300081b0033",
  "linkReferences": {},
  "deployedLinkReferences": {}
}